:020000040040BA
:1000000038064020E5014000E1014000E1014000E8
:10001000E1014000E1014000E1014000000000007A
:10002000000000000000000000000000E1014000AE
:10003000E101400000000000E1014000E10140005A
:10004000E1014000E1014000E1014000E101400028
:10005000E1014000E1014000E1014000E101400018
:10006000E101400000000000E1014000E10140002A
:10007000E1014000E1014000E1014000E1014000F8
:10008000E1014000E1014000E1014000E1014000E8
:10009000E1014000E1014000E1014000E1014000D8
:1000A000E1014000E1014000E1014000E1014000C8
:1000B000E1014000E1014000E1014000E1014000B8
:1000C000E1014000E1014000E1014000E1014000A8
:1000D000E1014000E1014000E1014000E101400098
:1000E000E1014000E1014000E1014000E101400088
:1000F000E1014000E1014000E1014000E101400078
:10010000E1014000E1014000E1014000E101400067
:10011000E1014000E101400000000000000000009B
:10012000E1014000E1014000E1014000E101400047
:10013000E1014000E1014000E1014000E101400037
:10014000E1014000E1014000E1014000E101400027
:10015000E1014000E1014000E1014000E101400017
:10016000E1014000E101400010B5054C237833B9AE
:10017000044B13B10448AFF300800123237010BD7A
:100180000000402000000000F40940000C4B43B187
:100190000C480D4910B5AFF300800C48036823B933
:1001A00010BD0A48036833B97047094B002BF7D0DC
:1001B000BDE810401847064B002BF5D0184700BF8C
:1001C00000000000F409400004004020F409400051
:1001D0000000000008B5014B984708BD250340000A
:1001E000FEE7000008B5174B174A9A4210D0174B8C
:1001F000144A9A420CD2013B9B1A23F003030433A6
:100200001344114951F8040B42F8040B9A42F9D1F6
:100210000F4B104A9A420AD2013B9B1A23F0030368
:1002200004331344002142F8041B9342FBD10A4AD1
:100230000A4B23F07F039360094B9847094B98477B
:10024000FEE700BF00004020F4094000000040200D
:10025000380040200000402000ED00E00000400099
:1002600045094000C1084000164B1A6F42F4801245
:100270001A675A6F22F480125A674FF480125A603C
:100280001A6F42F400121A675A6F22F400125A676A
:100290004FF400125A600C4A116F41F004011167CB
:1002A000516F41F004015167042151601A6F42F40B
:1002B00080021A675A6F22F480025A674FF4800254
:1002C0005A60704700140E4000100E40044B9B69AA
:1002D00013F4001F03D14FF40012014B1A61704751
:1002E00000060E4010B5084B9847084B9847084C3D
:1002F00001462046074B984707492046074B984739
:10030000074B984710BD00BFCD024000BD0840001C
:100310002000402059054000008000407905400041
:100320006902400008B5054B9847054A536843F4F5
:1003300000435360034B984708BD00BF310640009F
:1003400050180E40E5024000EFF31083036072B6D0
:10035000BFF35F8F7047BFF35F8F036883F310882D
:100360007047000010B5044B1C68044B98470146C9
:100370002046034B984710BD1C0040201D0640003E
:100380002906400070B5164604460D46002818BFE1
:10039000002914BF012000203D220449044B984746
:1003A0006368324629462046984770BD8C09400054
:1003B000150640002DE9F04F85B0914605460C46E4
:1003C0000191002818BF002914BF012000204822F5
:1003D0003D493E4B9847A668002E6DD02B7A012BE5
:1003E00088BF76000027ADF80C70B846DFF8F4A09F
:1003F00009F0010BB74214D2B04512D22C1D204691
:10040000D04700285CD1BBF1000F14D119F0020FC6
:100410002BD12B7D002BEDD020462D4B984700286B
:10042000E8D02B7A012B40D919F0020F14BF4FEA04
:100430005800780841E02046264B98470028E5D030
:10044000019B1B68791CDA5D8DF80C202A7A012A41
:1004500009D902375B5C8DF80D30BDF80C102046D1
:100460001D4B9847D2E70F46F7E720461B4B9847AE
:100470000028CED020461A4B9847ADF80C000198C2
:100480004368002BC5D008F101029DF80C1003F859
:1004900008102B7A012B06D908F1020843689DF851
:1004A0000D109954B5E79046B3E709F00200002813
:1004B0000CBF3846404600E0002005B0BDE8F08F94
:1004C0006FF00500F9E700BFA009400015064000E5
:1004D0008908400029084000F907400059084000F9
:1004E000CD0740008D08400070B584B00E4615461B
:1004F000044688220749003018BF0120064B984760
:1005000001960395012201A9A4F10C00034B984721
:1005100004B070BDA009400015064000B5034000BE
:1005200070B584B00E4615460446A6220749003031
:1005300018BF0120064B984702960395022201A995
:10054000A4F10C00034B984704B070BDA009400013
:1005500015064000B503400038B50D460446B422E8
:100560000349003018BF0120024B9847256038BD71
:10057000A00940001506400038B504460D46002885
:1005800018BF002914BF01200020BB220749084BD7
:1005900098472946201D074B9847002804DB064B47
:1005A0002361064BE360002038BD00BFA009400076
:1005B000150640009107400021054000E904400075
:1005C00010B50446D0220549003018BF0120044B65
:1005D0009847201D034B984710BD00BFA00940005D
:1005E000150640009D07400038B504460D4600281A
:1005F00018BF002914BF01200020FA220349044B30
:1006000098470C342C60002038BD00BFA009400082
:100610001506400000B900BE70470000014B03FB07
:1006200000F07047E09304000139FDD870470000E6
:1006300000B583B001A80E4B98470E4AD2F8883017
:1006400043F47003C2F88830BFF34F8FBFF36F8F4E
:1006500001A8094B9847094A136823F4706343F4CF
:10066000C0631360064B984703B05DF804FB00BFFE
:100670004903400000ED00E057034000000C0E402D
:10068000850640001D490A6A22F002021C4B1343F2
:100690000B620A46936E13F0010FFBD0174B196AD9
:1006A000184A0A431A62996A174A0A409A62174A14
:1006B0009A621A46936E13F0020FFBD00F4A136B27
:1006C00023F070031363936E13F0080FFBD00B4AF3
:1006D000136B23F4407343F480731363936E13F02E
:1006E000080FFBD0054A136B23F0030343F002030A
:1006F0001363936E13F0080FFBD0704700060E4093
:10070000013E370000003701FFFF00F8013F1820CD
:1007100038B505460C461A4B0B44C3F30743052B6B
:100720000DD14FF49A721749002818BF002C14BF3E
:1007300001200020144B98476FF00C0038BD4FF497
:100740009A721049002818BF002C14BF0120002005
:100750000D4B9847236913F4803F0DD1802323600C
:100760002C604FF000432360084B63600223236337
:100770000020E880287138BD6FF0100038BD00BF40
:100780000080FFBFBC0940001506400010000E00AD
:1007900008B5014B984708BD1107400010B5044645
:1007A00068B10068003018BF012040F2ED22054911
:1007B000054B9847236801221A60002010BD0020D5
:1007C000F3E700BFBC0940001506400010B5044621
:1007D00060B10068003018BF012040F23532044992
:1007E000044B98472368986880B210BD0020F4E756
:1007F000BC0940001506400038B50D46044660B1FE
:100800000068003018BF01204FF44F720449054BB7
:1008100098472368DD60002038BD0020F4E700BF62
:10082000BC0940001506400010B5044668B10068D8
:10083000003018BF012040F245320549054B98476A
:1008400023681869C0F3400010BD0020F3E700BF23
:10085000BC0940001506400010B5044668B10068A8
:10086000003018BF01204FF453720549054B9847DB
:100870002368186900F0010010BD0020F3E700BFF5
:10088000BC094000150640000020704710B5044622
:1008900068B10068003018BF012040F25A320549A3
:1008A000054B984723681869C0F3800010BD0020ED
:1008B000F3E700BFBC094000150640000020704768
:1008C00000B583B0164B984704248DF80740154BAC
:1008D0009847154B4FF400721A6114490C614C6132
:1008E0001A63134D134C1E466420A84769462046E0
:1008F000114B98472046114B984701220DF10701F3
:1009000000980F4B98479DF80730452BECD1B36BFF
:1009100003F40073DA4302F4007232637363E3E7B3
:10092000D5014000E502400000120E4000100E40CC
:100930006503400020004020E9054000C10540005B
:100940008503400070B50D4E0D4CA41BA41000256E
:10095000A54209D10B4E0C4C00F03CF8A41BA4108E
:100960000025A54205D170BD56F8253098470135C0
:10097000EEE756F8253098470135F2E7E0094000E8
:10098000E0094000E0094000E40940002E2E2F68F5
:10099000616C2F7372632F68616C5F696F2E6300E7
:1009A0002E2E2F68616C2F7372632F68616C5F73DA
:1009B00070695F735F73796E632E63002E2E2F68EC
:1009C000706C2F7370692F68706C5F7370692E6321
:1009D00000000000F8B500BFF8BC08BC9E46704798
:1009E0008D014000F8B500BFF8BC08BC9E467047BA
:0409F0006901400059
:0400000500400000B7
:00000001FF
